{
  "_format": "hh-sol-artifact-1",
  "contractName": "ShareToken",
  "sourceName": "contracts/ShareToken.sol",
  "abi": [
    {
      "inputs": [],
      "stateMutability": "nonpayable",
      "type": "constructor"
    },
    {
      "anonymous": false,
      "inputs": [
        {
          "indexed": true,
          "internalType": "address",
          "name": "account",
          "type": "address"
        },
        {
          "indexed": true,
          "internalType": "address",
          "name": "operator",
          "type": "address"
        },
        {
          "indexed": false,
          "internalType": "bool",
          "name": "approved",
          "type": "bool"
        }
      ],
      "name": "ApprovalForAll",
      "type": "event"
    },
    {
      "anonymous": false,
      "inputs": [
        {
          "indexed": true,
          "internalType": "address",
          "name": "previousOwner",
          "type": "address"
        },
        {
          "indexed": true,
          "internalType": "address",
          "name": "newOwner",
          "type": "address"
        }
      ],
      "name": "OwnershipTransferred",
      "type": "event"
    },
    {
      "anonymous": false,
      "inputs": [
        {
          "indexed": false,
          "internalType": "address",
          "name": "account",
          "type": "address"
        }
      ],
      "name": "Paused",
      "type": "event"
    },
    {
      "anonymous": false,
      "inputs": [
        {
          "indexed": true,
          "internalType": "uint256",
          "name": "tokenId",
          "type": "uint256"
        },
        {
          "indexed": true,
          "internalType": "address",
          "name": "to",
          "type": "address"
        },
        {
          "indexed": false,
          "internalType": "uint256",
          "name": "amount",
          "type": "uint256"
        },
        {
          "indexed": false,
          "internalType": "string",
          "name": "assetDbId",
          "type": "string"
        }
      ],
      "name": "SharesMinted",
      "type": "event"
    },
    {
      "anonymous": false,
      "inputs": [
        {
          "indexed": true,
          "internalType": "uint256",
          "name": "tokenId",
          "type": "uint256"
        },
        {
          "indexed": true,
          "internalType": "address",
          "name": "from",
          "type": "address"
        },
        {
          "indexed": true,
          "internalType": "address",
          "name": "to",
          "type": "address"
        },
        {
          "indexed": false,
          "internalType": "uint256",
          "name": "amount",
          "type": "uint256"
        },
        {
          "indexed": false,
          "internalType": "string",
          "name": "transactionDbId",
          "type": "string"
        }
      ],
      "name": "SharesTransferred",
      "type": "event"
    },
    {
      "anonymous": false,
      "inputs": [
        {
          "indexed": true,
          "internalType": "address",
          "name": "operator",
          "type": "address"
        },
        {
          "indexed": true,
          "internalType": "address",
          "name": "from",
          "type": "address"
        },
        {
          "indexed": true,
          "internalType": "address",
          "name": "to",
          "type": "address"
        },
        {
          "indexed": false,
          "internalType": "uint256[]",
          "name": "ids",
          "type": "uint256[]"
        },
        {
          "indexed": false,
          "internalType": "uint256[]",
          "name": "values",
          "type": "uint256[]"
        }
      ],
      "name": "TransferBatch",
      "type": "event"
    },
    {
      "anonymous": false,
      "inputs": [
        {
          "indexed": true,
          "internalType": "address",
          "name": "operator",
          "type": "address"
        },
        {
          "indexed": true,
          "internalType": "address",
          "name": "from",
          "type": "address"
        },
        {
          "indexed": true,
          "internalType": "address",
          "name": "to",
          "type": "address"
        },
        {
          "indexed": false,
          "internalType": "uint256",
          "name": "id",
          "type": "uint256"
        },
        {
          "indexed": false,
          "internalType": "uint256",
          "name": "value",
          "type": "uint256"
        }
      ],
      "name": "TransferSingle",
      "type": "event"
    },
    {
      "anonymous": false,
      "inputs": [
        {
          "indexed": false,
          "internalType": "string",
          "name": "value",
          "type": "string"
        },
        {
          "indexed": true,
          "internalType": "uint256",
          "name": "id",
          "type": "uint256"
        }
      ],
      "name": "URI",
      "type": "event"
    },
    {
      "anonymous": false,
      "inputs": [
        {
          "indexed": false,
          "internalType": "address",
          "name": "account",
          "type": "address"
        }
      ],
      "name": "Unpaused",
      "type": "event"
    },
    {
      "inputs": [
        {
          "internalType": "address",
          "name": "from",
          "type": "address"
        },
        {
          "internalType": "address",
          "name": "to",
          "type": "address"
        },
        {
          "internalType": "uint256",
          "name": "tokenId",
          "type": "uint256"
        },
        {
          "internalType": "uint256",
          "name": "amount",
          "type": "uint256"
        },
        {
          "internalType": "string",
          "name": "transactionDbId",
          "type": "string"
        }
      ],
      "name": "adminTransfer",
      "outputs": [],
      "stateMutability": "nonpayable",
      "type": "function"
    },
    {
      "inputs": [
        {
          "internalType": "address",
          "name": "account",
          "type": "address"
        },
        {
          "internalType": "uint256",
          "name": "id",
          "type": "uint256"
        }
      ],
      "name": "balanceOf",
      "outputs": [
        {
          "internalType": "uint256",
          "name": "",
          "type": "uint256"
        }
      ],
      "stateMutability": "view",
      "type": "function"
    },
    {
      "inputs": [
        {
          "internalType": "address[]",
          "name": "accounts",
          "type": "address[]"
        },
        {
          "internalType": "uint256[]",
          "name": "ids",
          "type": "uint256[]"
        }
      ],
      "name": "balanceOfBatch",
      "outputs": [
        {
          "internalType": "uint256[]",
          "name": "",
          "type": "uint256[]"
        }
      ],
      "stateMutability": "view",
      "type": "function"
    },
    {
      "inputs": [
        {
          "internalType": "address",
          "name": "from",
          "type": "address"
        },
        {
          "internalType": "uint256",
          "name": "tokenId",
          "type": "uint256"
        },
        {
          "internalType": "uint256",
          "name": "amount",
          "type": "uint256"
        }
      ],
      "name": "burnShares",
      "outputs": [],
      "stateMutability": "nonpayable",
      "type": "function"
    },
    {
      "inputs": [
        {
          "internalType": "address",
          "name": "account",
          "type": "address"
        },
        {
          "internalType": "address",
          "name": "operator",
          "type": "address"
        }
      ],
      "name": "isApprovedForAll",
      "outputs": [
        {
          "internalType": "bool",
          "name": "",
          "type": "bool"
        }
      ],
      "stateMutability": "view",
      "type": "function"
    },
    {
      "inputs": [
        {
          "internalType": "address",
          "name": "to",
          "type": "address"
        },
        {
          "internalType": "uint256",
          "name": "tokenId",
          "type": "uint256"
        },
        {
          "internalType": "uint256",
          "name": "amount",
          "type": "uint256"
        },
        {
          "internalType": "string",
          "name": "assetDbId",
          "type": "string"
        }
      ],
      "name": "mintShares",
      "outputs": [],
      "stateMutability": "nonpayable",
      "type": "function"
    },
    {
      "inputs": [],
      "name": "owner",
      "outputs": [
        {
          "internalType": "address",
          "name": "",
          "type": "address"
        }
      ],
      "stateMutability": "view",
      "type": "function"
    },
    {
      "inputs": [],
      "name": "pause",
      "outputs": [],
      "stateMutability": "nonpayable",
      "type": "function"
    },
    {
      "inputs": [],
      "name": "paused",
      "outputs": [
        {
          "internalType": "bool",
          "name": "",
          "type": "bool"
        }
      ],
      "stateMutability": "view",
      "type": "function"
    },
    {
      "inputs": [],
      "name": "renounceOwnership",
      "outputs": [],
      "stateMutability": "nonpayable",
      "type": "function"
    },
    {
      "inputs": [
        {
          "internalType": "address",
          "name": "from",
          "type": "address"
        },
        {
          "internalType": "address",
          "name": "to",
          "type": "address"
        },
        {
          "internalType": "uint256[]",
          "name": "ids",
          "type": "uint256[]"
        },
        {
          "internalType": "uint256[]",
          "name": "amounts",
          "type": "uint256[]"
        },
        {
          "internalType": "bytes",
          "name": "data",
          "type": "bytes"
        }
      ],
      "name": "safeBatchTransferFrom",
      "outputs": [],
      "stateMutability": "nonpayable",
      "type": "function"
    },
    {
      "inputs": [
        {
          "internalType": "address",
          "name": "from",
          "type": "address"
        },
        {
          "internalType": "address",
          "name": "to",
          "type": "address"
        },
        {
          "internalType": "uint256",
          "name": "id",
          "type": "uint256"
        },
        {
          "internalType": "uint256",
          "name": "amount",
          "type": "uint256"
        },
        {
          "internalType": "bytes",
          "name": "data",
          "type": "bytes"
        }
      ],
      "name": "safeTransferFrom",
      "outputs": [],
      "stateMutability": "nonpayable",
      "type": "function"
    },
    {
      "inputs": [
        {
          "internalType": "address",
          "name": "operator",
          "type": "address"
        },
        {
          "internalType": "bool",
          "name": "approved",
          "type": "bool"
        }
      ],
      "name": "setApprovalForAll",
      "outputs": [],
      "stateMutability": "nonpayable",
      "type": "function"
    },
    {
      "inputs": [
        {
          "internalType": "bytes4",
          "name": "interfaceId",
          "type": "bytes4"
        }
      ],
      "name": "supportsInterface",
      "outputs": [
        {
          "internalType": "bool",
          "name": "",
          "type": "bool"
        }
      ],
      "stateMutability": "view",
      "type": "function"
    },
    {
      "inputs": [
        {
          "internalType": "uint256",
          "name": "",
          "type": "uint256"
        }
      ],
      "name": "totalSupply",
      "outputs": [
        {
          "internalType": "uint256",
          "name": "",
          "type": "uint256"
        }
      ],
      "stateMutability": "view",
      "type": "function"
    },
    {
      "inputs": [
        {
          "internalType": "address",
          "name": "newOwner",
          "type": "address"
        }
      ],
      "name": "transferOwnership",
      "outputs": [],
      "stateMutability": "nonpayable",
      "type": "function"
    },
    {
      "inputs": [],
      "name": "unpause",
      "outputs": [],
      "stateMutability": "nonpayable",
      "type": "function"
    },
    {
      "inputs": [
        {
          "internalType": "uint256",
          "name": "",
          "type": "uint256"
        }
      ],
      "name": "uri",
      "outputs": [
        {
          "internalType": "string",
          "name": "",
          "type": "string"
        }
      ],
      "stateMutability": "view",
      "type": "function"
    }
  ],
  "bytecode": "0x60806040523480156200001157600080fd5b506040805160208101909152600081526200002c816200004b565b5062000038336200005d565b6003805460ff60a01b1916905562000220565b600262000059828262000154565b5050565b600380546001600160a01b038381166001600160a01b0319831681179093556040519116919082907f8be0079c531659141344cd1fd0a4f28419497f9722a3daafe3b4186f6b6457e090600090a35050565b634e487b7160e01b600052604160045260246000fd5b600181811c90821680620000da57607f821691505b602082108103620000fb57634e487b7160e01b600052602260045260246000fd5b50919050565b601f8211156200014f57600081815260208120601f850160051c810160208610156200012a5750805b601f850160051c820191505b818110156200014b5782815560010162000136565b5050505b505050565b81516001600160401b03811115620001705762000170620000af565b6200018881620001818454620000c5565b8462000101565b602080601f831160018114620001c05760008415620001a75750858301515b600019600386901b1c1916600185901b1785556200014b565b600085815260208120601f198616915b82811015620001f157888601518255948401946001909101908401620001d0565b5085821015620002105787850151600019600388901b60f8161c191681555b5050505050600190811b01905550565b611ce680620002306000396000f3fe608060405234801561001057600080fd5b50600436106101155760003560e01c8063715018a6116100a2578063bd85b03911610071578063bd85b03914610236578063e985e9c514610256578063f242432a14610292578063f2fde38b146102a5578063fb7564c7146102b857600080fd5b8063715018a6146101f85780638456cb59146102005780638da5cb5b14610208578063a22cb4651461022357600080fd5b80632eb2c2d6116100e95780632eb2c2d6146101985780633f4ba83a146101ab5780634e1273f4146101b35780635379a6e0146101d35780635c975abb146101e657600080fd5b8062fdd58e1461011a57806301ffc9a7146101405780630e89341c146101635780631c857a0214610183575b600080fd5b61012d6101283660046112ec565b6102cb565b6040519081526020015b60405180910390f35b61015361014e36600461132c565b610364565b6040519015158152602001610137565b610176610171366004611350565b6103b4565b60405161013791906113af565b6101966101913660046113c2565b610448565b005b6101966101a6366004611541565b610483565b6101966104cf565b6101c66101c13660046115eb565b6104e1565b60405161013791906116f1565b6101966101e136600461174d565b61060b565b600354600160a01b900460ff16610153565b61019661068f565b6101966106a1565b6003546040516001600160a01b039091168152602001610137565b6101966102313660046117c5565b6106b1565b61012d610244366004611350565b60046020526000908152604090205481565b610153610264366004611801565b6001600160a01b03918216600090815260016020908152604080832093909416825291909152205460ff1690565b6101966102a0366004611834565b6106c0565b6101966102b3366004611899565b610705565b6101966102c63660046118b4565b61077e565b60006001600160a01b03831661033b5760405162461bcd60e51b815260206004820152602a60248201527f455243313135353a2061646472657373207a65726f206973206e6f742061207660448201526930b634b21037bbb732b960b11b60648201526084015b60405180910390fd5b506000818152602081815260408083206001600160a01b03861684529091529020545b92915050565b60006001600160e01b03198216636cdb3d1360e11b148061039557506001600160e01b031982166303a24d0760e21b145b8061035e57506301ffc9a760e01b6001600160e01b031983161461035e565b6060600280546103c39061191c565b80601f01602080910402602001604051908101604052809291908181526020018280546103ef9061191c565b801561043c5780601f106104115761010080835404028352916020019161043c565b820191906000526020600020905b81548152906001019060200180831161041f57829003601f168201915b50505050509050919050565b61045061081b565b61045b838383610875565b6000828152600460205260408120805483929061047990849061196c565b9091555050505050565b6001600160a01b03851633148061049f575061049f8533610264565b6104bb5760405162461bcd60e51b81526004016103329061197f565b6104c885858585856109f6565b5050505050565b6104d761081b565b6104df610bd3565b565b606081518351146105465760405162461bcd60e51b815260206004820152602960248201527f455243313135353a206163636f756e747320616e6420696473206c656e677468604482015268040dad2e6dac2e8c6d60bb1b6064820152608401610332565b6000835167ffffffffffffffff811115610562576105626113f5565b60405190808252806020026020018201604052801561058b578160200160208202803683370190505b50905060005b8451811015610603576105d68582815181106105af576105af6119cd565b60200260200101518583815181106105c9576105c96119cd565b60200260200101516102cb565b8282815181106105e8576105e86119cd565b60209081029190910101526105fc816119e3565b9050610591565b509392505050565b61061361081b565b61061b610c28565b6106378686868660405180602001604052806000815250610c75565b846001600160a01b0316866001600160a01b0316857f998feaaa7a03ffb58d051e4860605a73d100b6e18a1f6449c2f771664062ad0886868660405161067f939291906119fc565b60405180910390a4505050505050565b61069761081b565b6104df6000610d9f565b6106a961081b565b6104df610df1565b6106bc338383610e34565b5050565b6001600160a01b0385163314806106dc57506106dc8533610264565b6106f85760405162461bcd60e51b81526004016103329061197f565b6104c88585858585610c75565b61070d61081b565b6001600160a01b0381166107725760405162461bcd60e51b815260206004820152602660248201527f4f776e61626c653a206e6577206f776e657220697320746865207a65726f206160448201526564647265737360d01b6064820152608401610332565b61077b81610d9f565b50565b61078661081b565b61078e610c28565b6107a985858560405180602001604052806000815250610f14565b600084815260046020526040812080548592906107c7908490611a32565b92505081905550846001600160a01b0316847f2c1b1397cb012310e92cff53d95dde59781bfa0fbab3e097097ed2c369dd5c1285858560405161080c939291906119fc565b60405180910390a35050505050565b6003546001600160a01b031633146104df5760405162461bcd60e51b815260206004820181905260248201527f4f776e61626c653a2063616c6c6572206973206e6f7420746865206f776e65726044820152606401610332565b6001600160a01b0383166108d75760405162461bcd60e51b815260206004820152602360248201527f455243313135353a206275726e2066726f6d20746865207a65726f206164647260448201526265737360e81b6064820152608401610332565b3360006108e38461101f565b905060006108f08461101f565b60408051602080820183526000918290528882528181528282206001600160a01b038b16835290522054909150848110156109795760405162461bcd60e51b8152602060048201526024808201527f455243313135353a206275726e20616d6f756e7420657863656564732062616c604482015263616e636560e01b6064820152608401610332565b6000868152602081815260408083206001600160a01b038b81168086529184528285208a8703905582518b81529384018a90529092908816917fc3d58168c5ae7397731d063d5bbf3d657854427343f4c083240f7aacaa2d0f62910160405180910390a46040805160208101909152600090525b50505050505050565b8151835114610a585760405162461bcd60e51b815260206004820152602860248201527f455243313135353a2069647320616e6420616d6f756e7473206c656e677468206044820152670dad2e6dac2e8c6d60c31b6064820152608401610332565b6001600160a01b038416610a7e5760405162461bcd60e51b815260040161033290611a45565b3360005b8451811015610b65576000858281518110610a9f57610a9f6119cd565b602002602001015190506000858381518110610abd57610abd6119cd565b602090810291909101810151600084815280835260408082206001600160a01b038e168352909352919091205490915081811015610b0d5760405162461bcd60e51b815260040161033290611a8a565b6000838152602081815260408083206001600160a01b038e8116855292528083208585039055908b16825281208054849290610b4a908490611a32565b9250508190555050505080610b5e906119e3565b9050610a82565b50846001600160a01b0316866001600160a01b0316826001600160a01b03167f4a39dc06d4c0dbc64b70af90fd698a233a518aa5d07e595d983b8c0526c8f7fb8787604051610bb5929190611ad4565b60405180910390a4610bcb81878787878761106a565b505050505050565b610bdb6111c5565b6003805460ff60a01b191690557f5db9ee0a495bf2e6ff9c91a7834c1ba4fdd244a5e8aa4e537bd38aeae4b073aa335b6040516001600160a01b03909116815260200160405180910390a1565b600354600160a01b900460ff16156104df5760405162461bcd60e51b815260206004820152601060248201526f14185d5cd8589b194e881c185d5cd95960821b6044820152606401610332565b6001600160a01b038416610c9b5760405162461bcd60e51b815260040161033290611a45565b336000610ca78561101f565b90506000610cb48561101f565b90506000868152602081815260408083206001600160a01b038c16845290915290205485811015610cf75760405162461bcd60e51b815260040161033290611a8a565b6000878152602081815260408083206001600160a01b038d8116855292528083208985039055908a16825281208054889290610d34908490611a32565b909155505060408051888152602081018890526001600160a01b03808b16928c821692918816917fc3d58168c5ae7397731d063d5bbf3d657854427343f4c083240f7aacaa2d0f62910160405180910390a4610d94848a8a8a8a8a611215565b505050505050505050565b600380546001600160a01b038381166001600160a01b0319831681179093556040519116919082907f8be0079c531659141344cd1fd0a4f28419497f9722a3daafe3b4186f6b6457e090600090a35050565b610df9610c28565b6003805460ff60a01b1916600160a01b1790557f62e78cea01bee320cd4e420270b5ea74000d11b0c9f74754ebdbfc544b05a258610c0b3390565b816001600160a01b0316836001600160a01b031603610ea75760405162461bcd60e51b815260206004820152602960248201527f455243313135353a2073657474696e6720617070726f76616c20737461747573604482015268103337b91039b2b63360b91b6064820152608401610332565b6001600160a01b03838116600081815260016020908152604080832094871680845294825291829020805460ff191686151590811790915591519182527f17307eab39ab6107e8899845ad3d59bd9653f200f220920489ca2b5937696c31910160405180910390a3505050565b6001600160a01b038416610f745760405162461bcd60e51b815260206004820152602160248201527f455243313135353a206d696e7420746f20746865207a65726f206164647265736044820152607360f81b6064820152608401610332565b336000610f808561101f565b90506000610f8d8561101f565b90506000868152602081815260408083206001600160a01b038b16845290915281208054879290610fbf908490611a32565b909155505060408051878152602081018790526001600160a01b03808a1692600092918716917fc3d58168c5ae7397731d063d5bbf3d657854427343f4c083240f7aacaa2d0f62910160405180910390a46109ed83600089898989611215565b60408051600180825281830190925260609160009190602080830190803683370190505090508281600081518110611059576110596119cd565b602090810291909101015292915050565b6001600160a01b0384163b15610bcb5760405163bc197c8160e01b81526001600160a01b0385169063bc197c81906110ae9089908990889088908890600401611b02565b6020604051808303816000875af19250505080156110e9575060408051601f3d908101601f191682019092526110e691810190611b60565b60015b611195576110f5611b7d565b806308c379a00361112e5750611109611b99565b806111145750611130565b8060405162461bcd60e51b815260040161033291906113af565b505b60405162461bcd60e51b815260206004820152603460248201527f455243313135353a207472616e7366657220746f206e6f6e2d455243313135356044820152732932b1b2b4bb32b91034b6b83632b6b2b73a32b960611b6064820152608401610332565b6001600160e01b0319811663bc197c8160e01b146109ed5760405162461bcd60e51b815260040161033290611c23565b600354600160a01b900460ff166104df5760405162461bcd60e51b815260206004820152601460248201527314185d5cd8589b194e881b9bdd081c185d5cd95960621b6044820152606401610332565b6001600160a01b0384163b15610bcb5760405163f23a6e6160e01b81526001600160a01b0385169063f23a6e61906112599089908990889088908890600401611c6b565b6020604051808303816000875af1925050508015611294575060408051601f3d908101601f1916820190925261129191810190611b60565b60015b6112a0576110f5611b7d565b6001600160e01b0319811663f23a6e6160e01b146109ed5760405162461bcd60e51b815260040161033290611c23565b80356001600160a01b03811681146112e757600080fd5b919050565b600080604083850312156112ff57600080fd5b611308836112d0565b946020939093013593505050565b6001600160e01b03198116811461077b57600080fd5b60006020828403121561133e57600080fd5b813561134981611316565b9392505050565b60006020828403121561136257600080fd5b5035919050565b6000815180845260005b8181101561138f57602081850181015186830182015201611373565b506000602082860101526020601f19601f83011685010191505092915050565b6020815260006113496020830184611369565b6000806000606084860312156113d757600080fd5b6113e0846112d0565b95602085013595506040909401359392505050565b634e487b7160e01b600052604160045260246000fd5b601f8201601f1916810167ffffffffffffffff81118282101715611431576114316113f5565b6040525050565b600067ffffffffffffffff821115611452576114526113f5565b5060051b60200190565b600082601f83011261146d57600080fd5b8135602061147a82611438565b604051611487828261140b565b83815260059390931b85018201928281019150868411156114a757600080fd5b8286015b848110156114c257803583529183019183016114ab565b509695505050505050565b600082601f8301126114de57600080fd5b813567ffffffffffffffff8111156114f8576114f86113f5565b60405161150f601f8301601f19166020018261140b565b81815284602083860101111561152457600080fd5b816020850160208301376000918101602001919091529392505050565b600080600080600060a0868803121561155957600080fd5b611562866112d0565b9450611570602087016112d0565b9350604086013567ffffffffffffffff8082111561158d57600080fd5b61159989838a0161145c565b945060608801359150808211156115af57600080fd5b6115bb89838a0161145c565b935060808801359150808211156115d157600080fd5b506115de888289016114cd565b9150509295509295909350565b600080604083850312156115fe57600080fd5b823567ffffffffffffffff8082111561161657600080fd5b818501915085601f83011261162a57600080fd5b8135602061163782611438565b604051611644828261140b565b83815260059390931b850182019282810191508984111561166457600080fd5b948201945b838610156116895761167a866112d0565b82529482019490820190611669565b9650508601359250508082111561169f57600080fd5b506116ac8582860161145c565b9150509250929050565b600081518084526020808501945080840160005b838110156116e6578151875295820195908201906001016116ca565b509495945050505050565b60208152600061134960208301846116b6565b60008083601f84011261171657600080fd5b50813567ffffffffffffffff81111561172e57600080fd5b60208301915083602082850101111561174657600080fd5b9250929050565b60008060008060008060a0878903121561176657600080fd5b61176f876112d0565b955061177d602088016112d0565b94506040870135935060608701359250608087013567ffffffffffffffff8111156117a757600080fd5b6117b389828a01611704565b979a9699509497509295939492505050565b600080604083850312156117d857600080fd5b6117e1836112d0565b9150602083013580151581146117f657600080fd5b809150509250929050565b6000806040838503121561181457600080fd5b61181d836112d0565b915061182b602084016112d0565b90509250929050565b600080600080600060a0868803121561184c57600080fd5b611855866112d0565b9450611863602087016112d0565b93506040860135925060608601359150608086013567ffffffffffffffff81111561188d57600080fd5b6115de888289016114cd565b6000602082840312156118ab57600080fd5b611349826112d0565b6000806000806000608086880312156118cc57600080fd5b6118d5866112d0565b94506020860135935060408601359250606086013567ffffffffffffffff8111156118ff57600080fd5b61190b88828901611704565b969995985093965092949392505050565b600181811c9082168061193057607f821691505b60208210810361195057634e487b7160e01b600052602260045260246000fd5b50919050565b634e487b7160e01b600052601160045260246000fd5b8181038181111561035e5761035e611956565b6020808252602e908201527f455243313135353a2063616c6c6572206973206e6f7420746f6b656e206f776e60408201526d195c881bdc88185c1c1c9bdd995960921b606082015260800190565b634e487b7160e01b600052603260045260246000fd5b6000600182016119f5576119f5611956565b5060010190565b83815260406020820152816040820152818360608301376000818301606090810191909152601f909201601f1916010192915050565b8082018082111561035e5761035e611956565b60208082526025908201527f455243313135353a207472616e7366657220746f20746865207a65726f206164604082015264647265737360d81b606082015260800190565b6020808252602a908201527f455243313135353a20696e73756666696369656e742062616c616e636520666f60408201526939103a3930b739b332b960b11b606082015260800190565b604081526000611ae760408301856116b6565b8281036020840152611af981856116b6565b95945050505050565b6001600160a01b0386811682528516602082015260a060408201819052600090611b2e908301866116b6565b8281036060840152611b4081866116b6565b90508281036080840152611b548185611369565b98975050505050505050565b600060208284031215611b7257600080fd5b815161134981611316565b600060033d1115611b965760046000803e5060005160e01c5b90565b600060443d1015611ba75790565b6040516003193d81016004833e81513d67ffffffffffffffff8160248401118184111715611bd757505050505090565b8285019150815181811115611bef5750505050505090565b843d8701016020828501011115611c095750505050505090565b611c186020828601018761140b565b509095945050505050565b60208082526028908201527f455243313135353a204552433131353552656365697665722072656a656374656040820152676420746f6b656e7360c01b606082015260800190565b6001600160a01b03868116825285166020820152604081018490526060810183905260a060808201819052600090611ca590830184611369565b97965050505050505056fea2646970667358221220eb21f6d1216490eeb6e28ecf53d1373774f252de7a0c38ad571b2cbcc6c4912164736f6c63430008140033",
  "linkReferences": {},
  "deployedLinkReferences": {}
}